:1000FC007D017C007F0112008F7D027C007F02124B
:10010C00008F7D037C007F0312008F7D047C007FB9
:10011C000412008F7D057C007F0512008F7D067C0C
:10012C00007F0612008F7D077C007F0712008F7DF9
:0A013C00087C007F0812008F80B6D7
:10014600EF1FAC0670011E4C600A7D047CE1DCFEEC
:04015600DDFC80EC60
:01015A002282
:0C015B000A08FC60DAF266B6BEE0FEE6C0
:10008F00EF14B4080050549000A475F003A4C58376
:10009F0025F0C583730200BC0200C00200C8020035
:1000AF00CC0200D40200D80200E00200E4C290802B
:1000BF0002D290C291C2928022C2908002D290D27C
:1000CF0091C2928016C2908002D290C291D2928039
:1000DF000AC2908002D290D291D29274082DF8E683
:0D00EF00F5A07F017E00120146E4F5A0227D
:03000000020003F8
:0C000300787FE4F6D8FD75811102004AF8
:10000F000200FCE493A3F8E493A34003F68001F20B
:10001F0008DFF48029E493A3F85407240CC8C333F2
:10002F00C4540F4420C8834004F456800146F6DFC1
:10003F00E4800B010204081020408090015BE47EF5
:10004F00019360BCA3FF543F30E509541FFEE493B6
:10005F00A360010ECF54C025E060A840B8E493A37D
:10006F00FAE493A3F8E493A3C8C582C8CAC583CAA8
:10007F00F0A3C8C582C8CAC583CADFE9DEE780BE60
:010167000097
:00000001FF
