:10000000020003787FE4F6D8FD75811102004A02F0
:100010000106E493A3F8E493A34003F68001F208F9
:10002000DFF48029E493A3F85407240CC8C333C435
:10003000540F4420C8834004F456800146F6DFE4A0
:10004000800B0102040810204080900116E47E011C
:100050009360BCA3FF543F30E509541FFEE493A313
:1000600060010ECF54C025E060A840B8E493A3FA25
:10007000E493A3F8E493A3C8C582C8CAC583CAF0B1
:10008000A3C8C582C8CAC583CADFE9DEE780BE123D
:10009000009E0D0F12009E0D0F12009E0D0FEF140B
:1000A000B4080050549000B375F003A4C58325F044
:1000B000C583730200CB0200CF0200D70200DB022F
:1000C00000E30200E70200EF0200F3C2908002D2D8
:1000D00090C291C2928022C2908002D290D291C2EC
:1000E000928016C2908002D290C291D292800AC2AF
:1000F000908002D290D291D29274082DF8E6F5A0A9
:100100000000E4F5A0227D017C007F0112008F0D2C
:100110000F12008F80F00A08FC60DAF266B6BEE0CB
:03012000FEE600F8
:00000001FF
