:030000000203FCFC
:0C03FC00787FE4F6D8FD75812502036AC5
:10036A00E4F5081203D91200038F08E50860F7FBC9
:0E037A007A00750D027D027F0112032380E8D8
:0603ED00C2A58F80D2A71B
:0803F3007F027EEFDEFEDFFC5D
:0103FB0022DF
:0A040800C2A61203EDC2A70203F31F
:10038800CFCDCFCECCCE1201CB7C007D0A1201CBD3
:04039800ED2430FF21
:0A039C00D2A61203EDC2A70203F37C
:1003A600AE07EEFB7A0064017004ED148009EB647D
:0E03B600024A7009ED243F4480FF1204082221
:1003D9007F381204087F0C1204087F061204087F74
:0403E9000102040801
:0A041200AC031203A6AF0402039C22
:060347008B238A248925A6
:10034D001203A6E4FDAB23AA24A9258D8275830093
:0C035D0012018CFF600612039C0D80E969
:010369002271
:0A02F200EF24FFFDEE34FFFC7F0A4D
:0802FC008E0E8F0F8C108D1186
:100304007F017E00E4FBEBC39511E5106480F87473
:0E0314008098500AAC0EAD0F1201B90B80E8B4
:0103220022B8
:040323008A0B8B0CAA
:100327001203A6AA0DEAFF7E00D39400748094807E
:0F033700400D1202F2AC0BAD0C1203881A80E6D7
:010346002294
:04026B008B828A8375
:10026F001203A6C3E58364809480400D7F2B120395
:10027F009C85831785821880107F2D12039CC3E401
:10028F009582F518E49583F517AA16EAFF7E00D339
:10029F00940074809480400D1202F2AC17AD1812C6
:0502AF0003881A80E63F
:0102B4002227
:040220008A1B8B1C8E
:100224001203A6AA1DEAD39400748094804037EA8E
:1002340024FFFDE434FFFC7F107E001202FCAC1BA3
:10024400AD1CCFCDCFCECCCE1201CBEF540FFEC31D
:10025400940A74809480EE5004243080022437FF82
:0602640012039C1A80BF8A
:01026A002271
:0402B5008A208B21EF
:1002B9001203A6AA22EAFF7E00D3940074809480D8
:1002C9004026EF24FFFDEE34FFFC7F021202FCAC56
:1002D90020AD21CFCDCFCECCCE1201CBEF5401240E
:0802E90030FF12039C1A80CDC6
:0102F10022EA
:1003C400EF1FAC0670011E4C600A7D047CE1DCFE6C
:0403D400DDFC80ECE0
:0103D8002202
:10000300E4F5097590FFC2902094137F14FE120348
:10001300C43094FD7F147E001203C475090120953A
:10002300147F147E001203C43095FD7F147E0012EA
:1000330003C47509022096147F147E001203C43092
:1000430096FD7F147E001203C47509032097147F65
:10005300147E001203C43097FD7F147E001203C484
:100063007509047590FFC2912094147F147E0012C9
:1000730003C43094FD7F147E001203C47509052068
:1000830095147F147E001203C43095FD7F147E0007
:100093001203C47509062096147F147E001203C44C
:1000A3003096FD7F147E001203C475090720971450
:1000B3007F147E001203C43097FD7F147E00120369
:1000C300C47509087590FFC2922094147F147E00B2
:1000D3001203C43094FD7F147E001203C475090912
:1000E3002095147F147E001203C43095FD7F147E87
:1000F300001203C475090A2096147F147E001203AC
:10010300C43096FD7F147E001203C475090B20973B
:10011300147F147E001203C43097FD7F147E0012F7
:1001230003C475090C7590FFC2932094147F147E49
:10013300001203C43094FD7F147E001203C47509BA
:100143000D2095147F147E001203C43095FD7F1497
:100153007E001203C475090E2096147F147E0012CC
:1001630003C43096FD7F147E001203C475090F206B
:1001730097147F147E001203C43097FD7F147E0012
:080183001203C4750910AF0955
:01018B002251
:10018C00BB010CE58229F582E5833AF583E0225028
:10019C0006E92582F8E622BBFE06E92582F8E22272
:0D01AC00E58229F582E5833AF583E493228C
:1001B900EF8DF0A4A8F0CF8CF0A428CE8DF0A42E5A
:0201C900FE2214
:1001CB00BC000BBE0029EF8DF084FFADF022E4CC18
:1001DB00F875F008EF2FFFEE33FEEC33FCEE9DECE1
:1001EB00984005FCEE9DFE0FD5F0E9E4CEFD22ED27
:1001FB00F8F5F0EE8420D21CFEADF075F008EF2F71
:10020B00FFED33FD4007985006D5F0F222C398FD61
:05021B000FD5F0EA22FE
:00000001FF
