:1002910048656C6C6F0057656C636F6D6520746F9A
:0802A10020436869616E210031
:100003001202D67B5C7A007D037C007F027E0012A5
:10001300030F7BFF7A0279917D037C007F017E00D1
:10002300120250750C027B427A007D097F01120295
:100033002C750C00750D027BA87AFF7D0B7F0112D6
:10004300017D750C027BA57A007D017F02120132CE
:10005300750C087BA57A007D047F021201BE7BDF4D
:100063007A007D0D7C007F027E0012030F7B437AB2
:10007300007D0E7C007F027E0012030F7BFF7A025D
:1000830079977D107C007F017E001202507F181249
:0B00930003057F327E001202C180F2E4
:0602EA00C2A58F80D2A71F
:0802F0007F047EE1DEFEDFFC6D
:0102F80022E3
:0A030500C2A61202EAC2A70202F02B
:10027300CFCDCFCECCCE1200DD7C007D0A1200DDC7
:04028300ED2430FF37
:0A028700D2A61202EAC2A70202F09A
:1002D6007F381203057F0C1203057F061203057F84
:0402E6000102030509
:0402A9007E007C0057
:1002AD00EF64014E7004ED148003ED243F4480FF94
:0402BD001203052201
:08030F001202ADAF03020287E8
:060250008B088A09890AEF
:100256001202ADE4FDAB08AA09A90A8D82758300D6
:0C02660012009EFF60061202870D80E966
:010272002269
:0A01FB00EF24FFFDEE34FFFC7F0A45
:080205008E108F118C128D1375
:10020D007F017E00E4FBEBC39513E5126480F87467
:0E021D008098500AAC10AD111200CB0B80E897
:01022B0022B0
:04022C008A0A8B0BA4
:100230001202A9AA0CEAFF7E00D394007480948075
:0F024000400D1201FBAC0AAD0B1202731A80E6DF
:01024F00228C
:10017D001202A9C3EA64809480400B7F2B12028780
:10018D008A0E8B0F800E7F2D120287C3E49BF50F15
:10019D00E49AF50EAA0DEAFF7E00D39400748094C4
:1001AD0080400D1201FBAC0EAD0F1202731A80E6EA
:0101BD00221F
:040132008A0A8B0B9F
:100136001202A9AA0CEAD39400748094804037EA8C
:1001460024FFFDE434FFFC7F107E00120205AC0A9A
:10015600AD0BCFCDCFCECCCE1200DDEF540FFEC30C
:10016600940A74809480EE5004243080022437FF71
:060176001202871A80BF8F
:01017C002260
:0401BE008A0A8B0B13
:1001C2001202A9AA0CEAFF7E00D3940074809480E4
:1001D2004026EF24FFFDEE34FFFC7F02120205AC45
:1001E2000AAD0BCFCDCFCECCCE1200DDEF54012421
:0801F20030FF1202871A80CDD4
:0101FA0022E2
:1002C100EF1FAC0670011E4C600A7D047CE1DCFE70
:0402D100DDFC80ECE4
:0102D5002206
:030000000202F900
:0C02F900787FE4F6D8FD75811302000345
:10009E00BB010CE58229F582E5833AF583E0225017
:1000AE0006E92582F8E622BBFE06E92582F8E22261
:0D00BE00E58229F582E5833AF583E493227B
:1000CB00EF8DF0A4A8F0CF8CF0A428CE8DF0A42E49
:0200DB00FE2203
:1000DD00BC000BBE0029EF8DF084FFADF022E4CC07
:1000ED00F875F008EF2FFFEE33FEEC33FCEE9DECD0
:1000FD00984005FCEE9DFE0FD5F0E9E4CEFD22ED16
:10010D00F8F5F0EE8420D21CFEADF075F008EF2F5F
:10011D00FFED33FD4007985006D5F0F222C398FD50
:05012D000FD5F0EA22ED
:00000001FF
