:10000000020104BB010CE58229F582E5833AF58300
:10001000E0225006E92582F8E622BBFE06E92582A9
:10002000F8E222E58229F582E5833AF583E493221A
:10003000EF8DF0A4A8F0CF8CF0A428CE8DF0A42EE4
:10004000FE22BC000BBE0029EF8DF084FFADF02234
:10005000E4CCF875F008EF2FFFEE33FEEC33FCEE46
:100060009DEC984005FCEE9DFE0FD5F0E9E4CEFD39
:1000700022EDF8F5F0EE8420D21CFEADF075F0080C
:10008000EF2FFFED33FD4007985006D5F0F222C365
:1000900098FD0FD5F0EA22CFCDCFCECCCE120042C4
:1000A0007C007D0A120042ED2430FFD2A61200E748
:1000B000C2A70200EDAE07EEFB7A0064017004ED0A
:1000C000148009EB64024A7009ED243F4480FF125A
:1000D0000110227F381201107F0C1201107F0612CE
:1000E00001107F01020110C2A58F80D2A77F027E7E
:1000F000EFDEFEDFFC221200D37B417D027F021285
:10010000011A80F2787FE4F6D8FD7581070200F6C7
:10011000C2A61200E7C2A70200EDAC031200B5AF01
:04012000040200AB2A
:00000001FF
