:0C0116000A08FC60DAF266B6BEE0FEE605
:0F008F0012009E0D0F12009E0D0F12009E0D0FFE
:10009E00EF14B4080050549000B375F003A4C58358
:1000AE0025F0C583730200CB0200CF0200D70200F9
:1000BE00DB0200E30200E70200EF0200F3C29080D1
:1000CE0002D290C291C2928022C2908002D290D26D
:1000DE0091C2928016C2908002D290C291D292802A
:1000EE000AC2908002D290D291D29274082DF8E674
:0800FE00F5A00000E4F5A022CA
:100106007D017C007F0112008F0D0F12008F80F0A1
:03000000020003F8
:0C000300787FE4F6D8FD75811102004AF8
:10000F00020106E493A3F8E493A34003F68001F200
:10001F0008DFF48029E493A3F85407240CC8C333F2
:10002F00C4540F4420C8834004F456800146F6DFC1
:10003F00E4800B0102040810204080900116E47E3A
:10004F00019360BCA3FF543F30E509541FFEE493B6
:10005F00A360010ECF54C025E060A840B8E493A37D
:10006F00FAE493A3F8E493A3C8C582C8CAC583CAA8
:10007F00F0A3C8C582C8CAC583CADFE9DEE780BE60
:0101220000DC
:00000001FF
