:0C00F2000A08FC60DAF266B6BEE0FEE62A
:10008F00EF14B4080050549000A475F003A4C58376
:10009F0025F0C583730200BC0200C00200C8020035
:1000AF00CC0200D40200D80200E00200E4C290802B
:1000BF0002D290C291C2928022C2908002D290D27C
:1000CF0091C2928016C2908002D290C291D2928039
:1000DF000AC2908002D290D291D29274082DF8E683
:0300EF00F5A02257
:0B00FF007D087C007F0312008F80FE54
:03000000020003F8
:0C000300787FE4F6D8FD75811102004AF8
:10000F000200FFE493A3F8E493A34003F68001F208
:10001F0008DFF48029E493A3F85407240CC8C333F2
:10002F00C4540F4420C8834004F456800146F6DFC1
:10003F00E4800B01020408102040809000F2E47E5F
:10004F00019360BCA3FF543F30E509541FFEE493B6
:10005F00A360010ECF54C025E060A840B8E493A37D
:10006F00FAE493A3F8E493A3C8C582C8CAC583CAA8
:10007F00F0A3C8C582C8CAC583CADFE9DEE780BE60
:0100FE000001
:00000001FF
