:0300000002024EAB
:0C024E00787FE4F6D8FD758124020240A0
:0E02400012021D7B617D027F0112026480F2BA
:06023100C2A58F80D2A7D8
:080237007F027EEFDEFEDFFC1A
:01023F00229C
:0A025A00C2A6120231C2A702023749
:1001E100CFCDCFCECCCE1200427C007D0A12004290
:0401F100ED2430FFCA
:0A01F500D2A6120231C2A70202379F
:1001FF00AE07EEFB7A0064017004ED148009EB6426
:0E020F00024A7009ED243F4480FF12025A2279
:10021D007F3812025A7F0C12025A7F0612025A7F41
:04022D000102025A6E
:0A026400AC031201FFAF040201F524
:0601BE008B228A23892434
:1001C4001201FFE4FDAB22AA23A9248D82758300CA
:0C01D400120003FF60061201F50D80E927
:0101E00022FC
:0A016900EF24FFFDEE34FFFC7F0AD7
:080173008E1E8F1F8C208D21D0
:10017B007F017E00E4FBEBC39521E5206480F874DE
:0E018B008098500AAC1EAD1F1200300B80E8A9
:010199002243
:04019A008A118B1229
:10019E001201FFAA13EAFF7E00D3940074809480AC
:0F01AE00400D120169AC11AD121201E11A80E689
:0101BD00221F
:0400E2008B828A8300
:1000E6001201FFC3E58364809480400D7F2B1201CB
:1000F600F585830D85820E80107F2D1201F5C3E4F0
:100106009582F50EE49583F50DAA0CEAFF7E00D3E1
:10011600940074809480400D120169AC0DAD0E12EE
:0501260001E11A80E672
:01012B0022B1
:040097008A168B1723
:10009B001201FFAA18EAD39400748094804037EAC7
:1000AB0024FFFDE434FFFC7F107E00120173AC16BD
:1000BB00AD17CFCDCFCECCCE120042EF540FFEC337
:1000CB00940A74809480EE5004243080022437FF0D
:0600DB001201F51A80BFBE
:0100E10022FC
:04012C008A1B8B1C83
:100130001201FFAA1DEAFF7E00D394007480948010
:100140004026EF24FFFDEE34FFFC7F02120173AC6A
:100150001BAD1CCFCDCFCECCCE120042EF5401242C
:0801600030FF1201F51A80CDF9
:010168002274
:10000300BB010CE58229F582E5833AF583E02250B2
:1000130006E92582F8E622BBFE06E92582F8E222FC
:0D002300E58229F582E5833AF583E4932216
:10003000EF8DF0A4A8F0CF8CF0A428CE8DF0A42EE4
:02004000FE229E
:10004200BC000BBE0029EF8DF084FFADF022E4CCA2
:10005200F875F008EF2FFFEE33FEEC33FCEE9DEC6B
:10006200984005FCEE9DFE0FD5F0E9E4CEFD22EDB1
:10007200F8F5F0EE8420D21CFEADF075F008EF2FFB
:10008200FFED33FD4007985006D5F0F222C398FDEC
:050092000FD5F0EA2289
:00000001FF
