:04005E007F147E008D
:10006200EF1FAC0670011E4C600A7D047CE1DCFED1
:04007200DDFC80EC45
:010076002267
:10000300E4FBFA75A00120B02712005E30B0FD12A8
:10001300005EEB64074A7004FAFB80050BBB00012A
:100023000AAF03A8077401088002C333D8FCF5A004
:1000330020B1D312005E30B1FD12005EEB4A7005B1
:10004300FA7B078005EB1B70011AAF03A807740145
:0B005300088002C333D8FCF5A080AB8E
:0300000002007784
:0C007700787FE4F6D8FD758107020003D5
:00000001FF
